{
  "_format": "hh-sol-artifact-1",
  "contractName": "WavePortal",
  "sourceName": "contracts/WavePortal.sol",
  "abi": [
    {
      "inputs": [],
      "stateMutability": "payable",
      "type": "constructor"
    },
    {
      "anonymous": false,
      "inputs": [
        {
          "indexed": true,
          "internalType": "address",
          "name": "from",
          "type": "address"
        },
        {
          "indexed": false,
          "internalType": "uint256",
          "name": "timestamp",
          "type": "uint256"
        },
        {
          "indexed": false,
          "internalType": "string",
          "name": "message",
          "type": "string"
        }
      ],
      "name": "NewWave",
      "type": "event"
    },
    {
      "inputs": [
        {
          "internalType": "string",
          "name": "_message",
          "type": "string"
        }
      ],
      "name": "generateWave",
      "outputs": [],
      "stateMutability": "nonpayable",
      "type": "function"
    },
    {
      "inputs": [],
      "name": "getAllWaves",
      "outputs": [
        {
          "components": [
            {
              "internalType": "address",
              "name": "waver",
              "type": "address"
            },
            {
              "internalType": "string",
              "name": "message",
              "type": "string"
            },
            {
              "internalType": "uint256",
              "name": "timestamp",
              "type": "uint256"
            }
          ],
          "internalType": "struct WavePortal.Wave[]",
          "name": "",
          "type": "tuple[]"
        }
      ],
      "stateMutability": "view",
      "type": "function"
    },
    {
      "inputs": [],
      "name": "getTotalWaves",
      "outputs": [
        {
          "internalType": "uint256",
          "name": "",
          "type": "uint256"
        }
      ],
      "stateMutability": "view",
      "type": "function"
    },
    {
      "inputs": [
        {
          "internalType": "address",
          "name": "",
          "type": "address"
        }
      ],
      "name": "lastWavedAt",
      "outputs": [
        {
          "internalType": "uint256",
          "name": "",
          "type": "uint256"
        }
      ],
      "stateMutability": "view",
      "type": "function"
    }
  ],
  "bytecode": "0x60806040526200004f6040518060400160405280600881526020017f34322e20504f472e0000000000000000000000000000000000000000000000008152506200007760201b6200067c1760201c565b606444426200005f9190620001c4565b6200006b919062000261565b60018190555062000308565b62000117816040516024016200008e919062000184565b6040516020818303038152906040527f41304fac000000000000000000000000000000000000000000000000000000007bffffffffffffffffffffffffffffffffffffffffffffffffffffffff19166020820180517bffffffffffffffffffffffffffffffffffffffffffffffffffffffff83818316178352505050506200011a60201b60201c565b50565b60008151905060006a636f6e736f6c652e6c6f679050602083016000808483855afa5050505050565b60006200015082620001a8565b6200015c8185620001b3565b93506200016e8185602086016200022b565b6200017981620002f7565b840191505092915050565b60006020820190508181036000830152620001a0818462000143565b905092915050565b600081519050919050565b600082825260208201905092915050565b6000620001d18262000221565b9150620001de8362000221565b9250827fffffffffffffffffffffffffffffffffffffffffffffffffffffffffffffffff0382111562000216576200021562000299565b5b828201905092915050565b6000819050919050565b60005b838110156200024b5780820151818401526020810190506200022e565b838111156200025b576000848401525b50505050565b60006200026e8262000221565b91506200027b8362000221565b9250826200028e576200028d620002c8565b5b828206905092915050565b7f4e487b7100000000000000000000000000000000000000000000000000000000600052601160045260246000fd5b7f4e487b7100000000000000000000000000000000000000000000000000000000600052601260045260246000fd5b6000601f19601f8301169050919050565b61121880620003186000396000f3fe608060405234801561001057600080fd5b506004361061004c5760003560e01c806384739a38146100515780639a2cdc081461006d578063a42a46631461008b578063bd43a908146100bb575b600080fd5b61006b60048036038101906100669190610a5e565b6100d9565b005b6100756104c8565b6040516100829190610eaa565b60405180910390f35b6100a560048036038101906100a09190610a35565b610513565b6040516100b29190610eaa565b60405180910390f35b6100c361052b565b6040516100d09190610d61565b60405180910390f35b42603c600360003373ffffffffffffffffffffffffffffffffffffffff1673ffffffffffffffffffffffffffffffffffffffff168152602001908152602001600020546101269190610fc7565b10610166576040517f08c379a000000000000000000000000000000000000000000000000000000000815260040161015d90610e8a565b60405180910390fd5b42600360003373ffffffffffffffffffffffffffffffffffffffff1673ffffffffffffffffffffffffffffffffffffffff1681526020019081526020016000208190555060016000808282546101bc9190610fc7565b925050819055506102036040518060400160405280601681526020017f257320776176656420772f206d657373616765202573000000000000000000008152503383610715565b600260405180606001604052803373ffffffffffffffffffffffffffffffffffffffff16815260200183815260200142815250908060018154018082558091505060019003906000526020600020906003020160009091909190915060008201518160000160006101000a81548173ffffffffffffffffffffffffffffffffffffffff021916908373ffffffffffffffffffffffffffffffffffffffff16021790555060208201518160010190805190602001906102c2929190610915565b506040820151816002015550503373ffffffffffffffffffffffffffffffffffffffff167f5f7e16dc676677766a70e9c5628aa6c54ddb8b6e5188e2ae1e1f17f1ffbea7164283604051610317929190610ec5565b60405180910390a26064444261032d9190610fc7565b61033791906110cd565b60018190555061037e6040518060400160405280601681526020017f52616e646f6d20232067656e6572617465643a202564000000000000000000008152506001546107b4565b603260015410156104c5576103c86040518060400160405280600781526020017f257320776f6e210000000000000000000000000000000000000000000000000081525033610850565b6000655af3107a4000905047811115610416576040517f08c379a000000000000000000000000000000000000000000000000000000000815260040161040d90610e4a565b60405180910390fd5b60003373ffffffffffffffffffffffffffffffffffffffff168260405161043c90610d4c565b60006040518083038185875af1925050503d8060008114610479576040519150601f19603f3d011682016040523d82523d6000602084013e61047e565b606091505b50509050806104c2576040517f08c379a00000000000000000000000000000000000000000000000000000000081526004016104b990610e6a565b60405180910390fd5b50505b50565b600061050b6040518060400160405280601781526020017f5765206861766520256420746f74616c207761766573210000000000000000008152506000546107b4565b600054905090565b60036020528060005260406000206000915090505481565b60606002805480602002602001604051908101604052809291908181526020016000905b8282101561067357838290600052602060002090600302016040518060600160405290816000820160009054906101000a900473ffffffffffffffffffffffffffffffffffffffff1673ffffffffffffffffffffffffffffffffffffffff1673ffffffffffffffffffffffffffffffffffffffff1681526020016001820180546105d89061109b565b80601f01602080910402602001604051908101604052809291908181526020018280546106049061109b565b80156106515780601f1061062657610100808354040283529160200191610651565b820191906000526020600020905b81548152906001019060200180831161063457829003601f168201915b505050505081526020016002820154815250508152602001906001019061054f565b50505050905090565b610712816040516024016106909190610d83565b6040516020818303038152906040527f41304fac000000000000000000000000000000000000000000000000000000007bffffffffffffffffffffffffffffffffffffffffffffffffffffffff19166020820180517bffffffffffffffffffffffffffffffffffffffffffffffffffffffff83818316178352505050506108ec565b50565b6107af83838360405160240161072d93929190610dd5565b6040516020818303038152906040527fe0e9ad4f000000000000000000000000000000000000000000000000000000007bffffffffffffffffffffffffffffffffffffffffffffffffffffffff19166020820180517bffffffffffffffffffffffffffffffffffffffffffffffffffffffff83818316178352505050506108ec565b505050565b61084c82826040516024016107ca929190610e1a565b6040516020818303038152906040527f9710a9d0000000000000000000000000000000000000000000000000000000007bffffffffffffffffffffffffffffffffffffffffffffffffffffffff19166020820180517bffffffffffffffffffffffffffffffffffffffffffffffffffffffff83818316178352505050506108ec565b5050565b6108e88282604051602401610866929190610da5565b6040516020818303038152906040527f319af333000000000000000000000000000000000000000000000000000000007bffffffffffffffffffffffffffffffffffffffffffffffffffffffff19166020820180517bffffffffffffffffffffffffffffffffffffffffffffffffffffffff83818316178352505050506108ec565b5050565b60008151905060006a636f6e736f6c652e6c6f679050602083016000808483855afa5050505050565b8280546109219061109b565b90600052602060002090601f016020900481019282610943576000855561098a565b82601f1061095c57805160ff191683800117855561098a565b8280016001018555821561098a579182015b8281111561098957825182559160200191906001019061096e565b5b509050610997919061099b565b5090565b5b808211156109b457600081600090555060010161099c565b5090565b60006109cb6109c684610f26565b610ef5565b9050828152602081018484840111156109e357600080fd5b6109ee848285611059565b509392505050565b600081359050610a05816111cb565b92915050565b600082601f830112610a1c57600080fd5b8135610a2c8482602086016109b8565b91505092915050565b600060208284031215610a4757600080fd5b6000610a55848285016109f6565b91505092915050565b600060208284031215610a7057600080fd5b600082013567ffffffffffffffff811115610a8a57600080fd5b610a9684828501610a0b565b91505092915050565b6000610aab8383610cde565b905092915050565b610abc8161101d565b82525050565b610acb8161101d565b82525050565b6000610adc82610f66565b610ae68185610f89565b935083602082028501610af885610f56565b8060005b85811015610b345784840389528151610b158582610a9f565b9450610b2083610f7c565b925060208a01995050600181019050610afc565b50829750879550505050505092915050565b6000610b5182610f71565b610b5b8185610fa5565b9350610b6b818560208601611068565b610b74816111ba565b840191505092915050565b6000610b8a82610f71565b610b948185610fb6565b9350610ba4818560208601611068565b610bad816111ba565b840191505092915050565b6000610bc5603483610fb6565b91507f547279696e6720746f207769746864726177206d6f7265206d6f6e657920746860008301527f616e2074686520636f6e7472616374206861732e0000000000000000000000006020830152604082019050919050565b6000610c2b602783610fb6565b91507f4661696c656420746f207769746864726177206d6f6e65792066726f6d20636f60008301527f6e74726163742e000000000000000000000000000000000000000000000000006020830152604082019050919050565b6000610c91600083610f9a565b9150600082019050919050565b6000610cab600883610fb6565b91507f576169742031356d0000000000000000000000000000000000000000000000006000830152602082019050919050565b6000606083016000830151610cf66000860182610ab3565b5060208301518482036020860152610d0e8282610b46565b9150506040830151610d236040860182610d2e565b508091505092915050565b610d378161104f565b82525050565b610d468161104f565b82525050565b6000610d5782610c84565b9150819050919050565b60006020820190508181036000830152610d7b8184610ad1565b905092915050565b60006020820190508181036000830152610d9d8184610b7f565b905092915050565b60006040820190508181036000830152610dbf8185610b7f565b9050610dce6020830184610ac2565b9392505050565b60006060820190508181036000830152610def8186610b7f565b9050610dfe6020830185610ac2565b8181036040830152610e108184610b7f565b9050949350505050565b60006040820190508181036000830152610e348185610b7f565b9050610e436020830184610d3d565b9392505050565b60006020820190508181036000830152610e6381610bb8565b9050919050565b60006020820190508181036000830152610e8381610c1e565b9050919050565b60006020820190508181036000830152610ea381610c9e565b9050919050565b6000602082019050610ebf6000830184610d3d565b92915050565b6000604082019050610eda6000830185610d3d565b8181036020830152610eec8184610b7f565b90509392505050565b6000604051905081810181811067ffffffffffffffff82111715610f1c57610f1b61118b565b5b8060405250919050565b600067ffffffffffffffff821115610f4157610f4061118b565b5b601f19601f8301169050602081019050919050565b6000819050602082019050919050565b600081519050919050565b600081519050919050565b6000602082019050919050565b600082825260208201905092915050565b600081905092915050565b600082825260208201905092915050565b600082825260208201905092915050565b6000610fd28261104f565b9150610fdd8361104f565b9250827fffffffffffffffffffffffffffffffffffffffffffffffffffffffffffffffff03821115611012576110116110fe565b5b828201905092915050565b60006110288261102f565b9050919050565b600073ffffffffffffffffffffffffffffffffffffffff82169050919050565b6000819050919050565b82818337600083830152505050565b60005b8381101561108657808201518184015260208101905061106b565b83811115611095576000848401525b50505050565b600060028204905060018216806110b357607f821691505b602082108114156110c7576110c661115c565b5b50919050565b60006110d88261104f565b91506110e38361104f565b9250826110f3576110f261112d565b5b828206905092915050565b7f4e487b7100000000000000000000000000000000000000000000000000000000600052601160045260246000fd5b7f4e487b7100000000000000000000000000000000000000000000000000000000600052601260045260246000fd5b7f4e487b7100000000000000000000000000000000000000000000000000000000600052602260045260246000fd5b7f4e487b7100000000000000000000000000000000000000000000000000000000600052604160045260246000fd5b6000601f19601f8301169050919050565b6111d48161101d565b81146111df57600080fd5b5056fea2646970667358221220945511240695d415799ada9b956eeb1351ebab1f2e757a924d8f5062f315a92d64736f6c63430008000033",
  "linkReferences": {},
  "deployedLinkReferences": {}
}